:02000000202CB2
:0E000600533083120313FD00FD0B0728080082
:0C001400000000000000000000000800D8
:10002000243083120313FC00B530FD00FD0B1628AD
:0A003000FC0B162800000000080079
:0E003A00F201F101F001F801F30100300800BD
:1000480083120313E01B2A2806112B280615601BB0
:100058002F28861130288615E01A342806123528EC
:100068000616601A392886123A28861647183E2836
:1000780086173F28861306170A200613E019462814
:1000880006114728061560194B2886114C28861535
:10009800E0185028061251280616601855288612AE
:1000A8005628861647185A2886175B288613061777
:1000B8000A200613471C6228102063280320080022
:0800C800FA1FF21300300800DA
:1000D0007B15FB1F72280130F300F201F101F001E2
:0800E000FA0DF20CFF300800DC
:1000E80083120313F801F9011030FC00710DF80DAB
:1000F800F90D7408F8027508031C750FF902031846
:100108008C287408F80775080318750FF907031089
:0A011800F00DF10DFC0B7A28080031
:10012200243083120313FD00FD0B95280000080004
:1001320083120313DE0105305E020318A7285E084E
:100142005D07840020308000DE0A9C285E085D077F
:1001520084008001DE035E085D07DF000A30F400E0
:10016200F5015B08F0005C08F10074207808F000EB
:100172007908F1003030F0075F08840070088000D1
:100182000A30F400F5015B08F0005C08F10074200D
:100192007008DB007108DC0000307106031DD328F3
:1001A20000307006031DD628D828DE03AC280800CC
:1001B2008312031347105B08E00024204714080051
:1001C200FB14FB1FEB28FF30F300F200F100F000FC
:0801D200FA0DF20CFF300800E9
:1001DA007B14FB1FF828F201FA1FFF30F200F1002E
:0A01EA00F000FA0DF20CFF300800DF
:1001F400A0017208031D0F297108F2007008F100B4
:10020400F001A0157208031D0F297108F200F10115
:10021400A0112016720803191D292008F302031DDA
:10022400031C21290310F21B2529F00DF10DF20DF9
:10023400F30B152921290130FC001D202829023047
:0E024400FC00682028290430FC00642008001B
:100252003B29803083120313D2004E29C030D200D2
:100262004E299430D2004E29D430D2004E2980300B
:10027200D2004E29831203135208013A03192A2984
:100282005208023A03192F295208033A0319322954
:100292005208043A0319352938295303F000520849
:1002A200F0077008D2007008E00024204710D50142
:1002B2005508540784000008031967295508540794
:1002C20084000008DB00D920D50A59294714080008
:0E02D2008312031346088A00450882000800C4
:1002E00083120313FB0173080319AD297208FA0086
:1002F000F2178E30F302F31FB029F309F30A083026
:100300007302031C9329F300F10D7208F100F2014E
:1003100008307302031C9329F300F10DF1017308F7
:10032000031D03109B29730803199B290310F20C6A
:10033000F10CF30B96297B1B711CA529031CA52925
:10034000F10A0319F20AF21BBC29FA1FBF29F209AC
:10035000F109F10A0319F20ABF29F201F101BF29DB
:100360007B14FB1FC229F201FA1FC229FF30F200E1
:10037000F100FA0DF20CC2290130FC00C429003052
:10038000FC00C429FF30FC00FC080319C829ED203B
:0A0390007108F0007208F100080087
:10039A0083120313FB017308031D77080319242A28
:1003AA0072087606FA007708F3077E30031CE12903
:1003BA00F3020318272AE429F302031C2A2A7208E3
:1003CA00F8007108FC007008FD00F817F617031012
:1003DA00F201F101F0011830A0007D1CFE29740819
:1003EA00F00775080318750FF10776080318760FDA
:1003FA00F207F20CF10CF00CF80CFC0CFD0C0310DB
:10040A00A00BF229F21B0E2AF80DF00DF10DF20DD8
:10041A00F3037B1B701C202AF81F202AF00A0319F9
:10042A00F10A0319F20A031D202AF20CF10CF00C4E
:10043A00F30A0319272AFA1FF21300302C2A013073
:10044A001D202C2A0230E1202C2A043068200000CA
:02045A00080098
:10045C00831203137008F8007108F000F101F20127
:10046C00F301FB01FC019630F300FA01F01F442A62
:10047C00F809F009F80A0319F00AFA177008F100E4
:0C048C007808F000F801F201FA200800E6
:1004980083120313D701D8015208D9005308DA0090
:1004A80080305306F00080307002031D5D2A003052
:1004B800520203186B2A0130D7000030D8005208C6
:1004C800003CD9005308031C013EDA01DA0259083E
:1004D800DB005A08DC005408DD0099200630D500FE
:1004E8000030D6005608003C031D7C2A5508003C05
:1004F8000318972A55085407F20001305502F000F6
:100508000030031C013E5602F100700854078400B5
:100518000008F00072088400700880000130D502DD
:10052800031CD603762A540884002030800057081C
:1005380058040319B52AD501D60155085407840073
:100548000008203A031DAC2AD50A0319D60AA12AA5
:100558000130D502031CD6035508540784002D30FA
:040568008000080007
:10056C00831203139F01C0309F042E09F000700802
:10057C0083169F051F179F1783125208F000F00D6A
:10058C007010F00D7010F00D701070089F041F1497
:10059C0091201F151F1DD42A0000D02A1F101E08E1
:1005AC00F100F00183161E08F0040030F10408007D
:1005BC0083120313D301D4015208F2005208F30042
:1005CC00720884000008203A031DF12A53085404D1
:1005DC00031DF12AFE2A0130D3000030D40072082A
:1005EC0084000008F0007308840070088000F30A8F
:1005FC007208F100F20A710884000008003A031D29
:08060C00E62A5208F000080084
:10061400013083120313D2000130D3002130D400FF
:1006240029214B30D200DE227008D4000130D200E0
:100634000D30D3002921DF30DB00D9204330DB002B
:0A064400D9202030DB00D920080087
:10064E0083120313D201B62270088312C3007108FD
:10065E00C4002E22E330F4003630F5007A30F60076
:10066E007D30F700CD2170217008C3007108C400E1
:10067E008030F200803071067202031D482B700824
:10068E000A3C031C4D2B04308800A52B8030F00053
:10069E00803044067002031D562B43080A3C031893
:1006AE00662B8030F000803044067002031D612BF3
:1006BE004308163C031C662B08308800A52B80309F
:1006CE00F000803044067002031D6F2B4308163C69
:1006DE0003187F2B8030F000803044067002031D1B
:1006EE007A2B4308203C031C7F2B10308800A52B4F
:1006FE008030F000803044067002031D882B4308C2
:10070E00203C0318982B8030F00080304406700295
:10071E00031D932B4308303C031C982B203088007C
:10072E00A52B8030F000803044067002031DA12BF3
:0E073E004308303C0318A52B4030880008000B
:10074C0083160313061386138612061286110611DE
:10075C0083120613861306118611061286121020B8
:10076C00102010200616861606170A2006131020D5
:10077C0006170A200613102006170A20061310204D
:10078C00861206170A200613102006170A200613D5
:10079C000612061506170A200613102006118616D7
:1007AC0006170A200613861206170A2006131020B5
:1007BC0006170A200613861606170A2006131020A1
:1007CC00861206170A2006130615861506168616B7
:0C07DC0006170A2006131020471408001E
:1007E800FF3083120313C800FF30C900FF30CA006E
:1007F800FF309F01C0309F042E09F0007008831657
:0C0808009F051F179F1783121F14080084
:10081400831203134308D2004408D3004B30D4009E
:040824004C2208005A
:1008280069218A110A128000840AC50A0319C60AB6
:08083800F003031D142C08005D
:100840007624F423A6230130E00024200C30E000BD
:1008500024200130D2000330D3002F30D4002921CE
:100860000230D2000330D3003B30D40029211A30AB
:10087000FB005E30FC006E30FD00FD0B3D2CFC0BE0
:100880003D2CFB0B3D2C00000130E00024208316A2
:0C089000880127230A240A23492C4D2C40
:1008EC0021308400223083120313F0005330C500F2
:0808FC000430C60014240800BA
:1008A600543465346D347034653472346134743460
:0A08B6007534723465343D340034AB
:0208C0000F34F3
:1008C200543465346D347034653472346134743444
:0808D200753472346534003402
:1008DA004D346F346E34693474346F347234003486
:02400E004A2F37
:00000001FF
